:020000040800F2
:1000000080370020750100089B0A0008910A00084B
:10001000970A000837020008451000080000000099
:100020000000000000000000000000007D0F00083C
:100030003B02000800000000450100087F0F000897
:100040008F0100088F0100088F0100088F01000850
:100050008F0100088F0100088F0100088F01000840
:100060008F0100088F0100088F0100088F01000830
:100070008F0100088F0100088F0100088F01000820
:100080008F0100088F0100088F0100088F01000810
:100090008F0100088F0100088F0100088F01000800
:1000A0008F0100088F0100088F0100088F010008F0
:1000B0008F0100088F0100088F0100088F010008E0
:1000C0008F0100088F0100088F0100088F010008D0
:1000D0008F0100088F0100088F0100088F010008C0
:1000E0008F0100088F0100088F0100088F010008B0
:1000F0008F0100088F0100088F0100088F010008A0
:100100008F0100088F0100088F0100088F0100088F
:100110008F0100088F0100088F0100088F0100087F
:100120008F0100088F0100088F0100088F0100086F
:10013000DFF80CD000F042F80048004769100008D2
:1001400080370020EFF3098020B120E9F00F074944
:1001500009680860054806490A6802601068B0E846
:10016000F00F80F309884EF0040E70472000002045
:10017000240000200648804706480047FEE7FEE7C7
:10018000FEE7FEE7FEE7FEE7FEE7FEE7FEE7FEE747
:10019000ED0F000831010008D2B201E000F8012B98
:1001A000491EFBD270470022F6E710B513460A46F7
:1001B00004461946FFF7F0FF204610BD064C074DD8
:1001C00006E0E06840F0010394E807009847103427
:1001D000AC42F6D3FFF7B0FF4811000868110008E1
:1001E00070B58C1810F8015B15F0070301D110F8F9
:1001F000013B2A1106D110F8012B03E010F8016B26
:1002000001F8016B5B1EF9D12B0705D40023521EA8
:100210000DD401F8013BFAE710F8013BCB1A921C10
:1002200003E013F8015B01F8015B521EF9D5A1420E
:10023000D8D3002070BD00BFFEE7704770470000B4
:1002400001480068704700001000002010B5084801
:10025000006840F0100006490860032000F098F89C
:10026000002000F007F800F02BF8002010BD00007F
:100270000020024070B504460E4800784FF47A71B1
:10028000B1FBF0F00C490968B1FBF0F5284600F02D
:10029000E5FB08B1012070BD102C07D200222146D9
:1002A000501E00F037F80548046001E00120F2E735
:1002B0000020F0E7180000201C000020140000209F
:1002C00008B500BF1148806940F001000F498861FE
:1002D0000846806900F00100009000BF00BF00BF29
:1002E0000846C06940F08050C8610846C06900F007
:1002F0008050009000BF00BF00BF0549486820F053
:10030000E06040F08060486000BF08BD001002401F
:10031000000001402DE9F05F80460D46164600279B
:1003200000F0BCFB074639462A46334601F0070079
:10033000C0F1070ABAF1040F02D94FF0040A01E034
:10034000C0F1070AD14600F1040ABAF1070F02D240
:100350004FF0000A01E0A0F1030AD4464FF0010A71
:100360000AFA09FAAAF1010A0AEA020A0AFA0CFAD6
:100370004FF0010B0BFA0CFBABF1010B0BEA030B7B
:100380004AEA0B042146404600F090FBBDE8F09F8E
:1003900000BF00F00702064B19684FF6FF03194033
:1003A000044B0B4343EA0221014B196000BF704725
:1003B0000CED00E00000FA0570B504460D4600267D
:1003C0006D48006800F00700A8420ED26A48006835
:1003D00020F007002843684908600846006800F0DC
:1003E0000700A84201D0012070BD207800F0020073
:1003F00002281DD1207800F00400042805D15F48B0
:10040000406840F4E0605D494860207800F00800F2
:10041000082805D15948406840F460505749486061
:100420005648406820F0F000A168084353494860EE
:10043000207800F0010000285DD06068012806D116
:100440004E48006800F4003090B90120CCE76068A5
:10045000022806D14948006800F0007040B9012028
:10046000C2E74648006800F0020008B90120BBE777
:100470004248406820F00300616808433F494860F3
:10048000FFF7DEFE06466068012810D108E0FFF79E
:10049000D7FE801B41F28831884201D90320A3E7AF
:1004A0003648406800F00C000428F0D123E0606872
:1004B000022810D108E0FFF7C3FE801B41F288310B
:1004C000884201D903208FE72C48406800F00C00D7
:1004D0000828F0D10FE008E0FFF7B2FE801B41F2E0
:1004E0008831884201D903207EE72448406800F023
:1004F0000C000028F0D12048006800F00700A84256
:100500000ED91D48006820F0070028431A490860EA
:100510000846006800F00700A84201D0012063E708
:10052000207800F00400042807D11448406820F423
:10053000E060E168084311494860207800F0080055
:10054000082808D10D48406820F46050216940EA2D
:10055000C1000A49486000F017F808494968C1F32A
:100560000311074A515CC840064908600020FFF7A4
:1005700081FE002038E70000002002400010024009
:10058000301100081C000020F0B585B00FF26C0C93
:100590009CE8E01001A8A0E8E0101CA52D680095DB
:1005A00000210022002300240020194D696801F079
:1005B0000C05F5B1042D02D0082D19D101E0154824
:1005C00019E001ADC1F38346AC5D01F4803555B14E
:1005D0000F4D6D68C5F340451DF805200D4D654371
:1005E000B5FBF2F302E00C4D04FB05F3184602E004
:1005F00000BF084800BF00BF05B0F0BD02030405FE
:10060000060708090A0B0C0D0E0F1010010200005E
:100610000010024000127A0000093D00F8B50446BF
:100620000025207800F00100002878D0F8484068C4
:1006300000F00C0004280CD0F548406800F00C00D5
:10064000082811D1F248406800F48030B0F5803FAE
:100650000AD1EF48006800F4003000285FD06068DD
:1006600000285CD10120F8BD00BF6068B0F5803F74
:1006700006D1E748006840F48030E549086028E08A
:10068000606858B9E248006820F48030E0490860AA
:100690000846006820F4802008601AE06068B0F521
:1006A000A02F0BD1DA48006840F48020D8490860B8
:1006B0000846006840F4803008600AE0D4480068CA
:1006C00020F48030D24908600846006820F4802079
:1006D000086000BF606888B1FFF7B2FD054606E01C
:1006E000FFF7AEFD401B642801D90320BBE7C848D3
:1006F000006800F400300028F2D010E0FFF7A0FD01
:10070000054606E0FFF79CFD401B642801D9032045
:10071000A9E7BF48006800F400300028F2D1207833
:1007200000F00200022857D1B948406800F00C00E0
:1007300050B1B748406800F00C00082818D1B44800
:10074000406800F4803098B9B148006800F00200B9
:1007500020B12069012801D0012084E7AC4800685D
:1007600020F0F800616940EAC100A949086033E05F
:100770002069E8B10120A7490860FFF761FD05463F
:1007800006E0FFF75DFD401B022801D903206AE760
:100790009F48006800F002000028F2D09C480068E2
:1007A00020F0F800616940EAC1009949086013E04F
:1007B000002098490860FFF743FD054606E0FFF773
:1007C0003FFD401B022801D903204CE790480068F8
:1007D00000F002000028F2D1207800F0080008287C
:1007E0002DD1A069B8B101208B490860FFF728FD21
:1007F000054606E0FFF724FD401B022801D903202F
:1008000031E78348406A00F002000028F2D001205E
:1008100000F0A0FB13E000207F490860FFF710FD07
:10082000054606E0FFF70CFD401B022801D9032016
:1008300019E77748406A00F002000028F2D12078DA
:1008400000F00400042873D100267148C06900F04C
:10085000805070B900BF6E48C06940F080506C494C
:10086000C8610846C06900F08050009000BF00BF1A
:1008700001266A48006800F48070B0B967480068D3
:1008800040F4807065490860FFF7DAFC054606E031
:10089000FFF7D6FC401B642801D90320E3E65F483C
:1008A000006800F480700028F2D000BFE0680128E2
:1008B00006D15748006A40F001005549086227E018
:1008C000E06858B95248006A20F0010050490862B7
:1008D0000846006A20F00400086219E0E068052874
:1008E0000BD14B48006A40F00400494908620846B1
:1008F000006A40F0010008620AE04548006A20F002
:100900000100434908620846006A20F004000862BA
:1009100000BFE068A0B1FFF793FC054609E0FFF7D0
:100920008FFC401B41F28831884202D903209AE6AD
:1009300022E03748006A00F002000028EFD012E001
:10094000FFF77EFC054608E0FFF77AFC401B41F20A
:100950008831884201D9032085E62D48006A00F0DD
:1009600002000028F0D1012E05D12948C06920F0ED
:1009700080502749C86100BFE069C8B32448406877
:1009800000F00C00082860D0E069022848D100205F
:1009900020490866FFF754FC054606E0FFF750FCC7
:1009A000401B022801D903205DE61948006800F0C9
:1009B00000700028F2D1206AB0F5803F07D11448BA
:1009C000406820F40030A168084311494860D4E928
:1009D000080108430E49496821F4741108430C4981
:1009E000486001200B490866FFF72AFC054607E02E
:1009F0002DE0FFF725FC401B022801D9032032E639
:100A00000348006800F000700028F2D01FE00000EA
:100A10000010024000004242800442420070004048
:100A200000200C490866FFF70BFC054606E0FFF7BF
:100A300007FC401B022801D9032014E60648006881
:100A400000F000700028F2D101E001200BE6002048
:100A500009E60000000042420010024070B5044662
:100A60002546681EB0F1807F01D301200FE0681E8B
:100A70004FF0E02148610F214FF0FF3000F016F8F1
:100A800000204FF0E021886107200861002070BD40
:100A900000BFFEE7704700BFFEE7704702480068EE
:100AA000C0F30220704700000CED00E010B50028F4
:100AB00007DA0A07140E054A00F00F031B1FD4546F
:100AC00003E00A07130E024A135410BD18ED00E0AC
:100AD00000E400E0024602B111B94FF0FF30704768
:100AE0004A60106840680860106841601160906852
:100AF000401C90600020F2E701238B4002689A437B
:100B000002607047024602B111B94FF0FF307047E2
:100B1000906850B1D1E900305860D1E90003186005
:100B2000096049609068401E90600020EFE7000077
:100B30000146FF200A781AB10A78114B985C1DE033
:100B40000A8802F47F423AB10A88C2F307220C4BAA
:100B50009A5C02F1080011E00A6802F47F023AB1DF
:100B60000A68C2F30742064B9A5C02F1100005E0E6
:100B70000A68120E024B9A5C02F1180070470000DE
:100B800030000020014688687047014611B94FF0D7
:100B9000FF307047096049600020886000BFF8E7B7
:100BA00001238B4002681A430260704770B5044607
:100BB0000D462570201DFFF7E8FF002070BD0000E6
:100BC00070B50446002500F039F80546214607486F
:100BD000006800F00DF80548006800F09DF928460F
:100BE00000F032F800F0D6F870BD000020000020C0
:100BF00070B504460D4604B970BDE560E06940F08B
:100C00000100E06104F110010248FFF763FF00BF3B
:100C1000F2E70000F031002010B5044604B910BD21
:100C2000E06920F00100E06104F110010248FFF7E3
:100C300069FF00BFF3E70000F031002000BFEFF3D1
:100C40001081084672B6704700BF80F3108800BF5D
:100C50007047000010B500240548FFF769FF00EB5E
:100C60004000044901EB80004468201F10BD0000D3
:100C700028000020FC3100202DE9F04105460F46F8
:100C800090461E46069C4FF08071201F044601606E
:100C9000201F044607601421201F04460160122112
:100CA000201F044601600321201F04460160022129
:100CB000201F044601600121201F04460160201FFF
:100CC0000446C0F800801121201F04460160102155
:100CD000201F044601600921201F044601600821ED
:100CE000201F044601600721201F044601600621E1
:100CF000201F044601600521201F044601600421D5
:100D0000201F044601602C600020E860AE61E861AD
:100D10000A20286200206862A862E8622863E8630B
:100D200031460848FFF73CFF06EB4601064A02EB56
:100D30008100291DFFF7CEFE0021686BFFF736FF0B
:100D4000BDE8F08128000020FC31002010B500240F
:100D5000002080F3098800BFFF200B4908700A209B
:100D600000F03EF800F036F80848FFF70EFF00BF2D
:100D700007E004EB4401064A02EB8100FFF705FFA0
:100D8000641C202CF5DB10BD22ED00E0F0310020CA
:100D9000FC31002070B500240B48006800B170BD24
:100DA000FFF74CFF0546FFF755FF0446074800686C
:100DB000844203D00648046000F03EF82846FFF75E
:100DC00043FF00BFEBE700002C00002020000020C4
:100DD0002400002000200149086070472C000020FA
:100DE00030B502461148006850434FF47A71B0FBA9
:100DF000F1F0401E4FF0E021486148170F21002814
:100E000007DA0B071D0E0A4B00F00F04241F1D55B7
:100E100003E00B071C0E074B1C5400BF00204FF0D3
:100E2000E02188610720086130BD00001C0000201F
:100E300018ED00E000E400E04FF080500149086048
:100E40007047000004ED00E070B5264845680024B6
:100E5000FFF7F4FE064615E0A5F110046D68207F4B
:100E600000F0020000B10DE0E068002803DDE0685A
:100E7000401EE06006E02046FFF7CEFE204600F070
:100E800037F800BF17488542E6D117480068006A66
:100E9000401E154909680862E8B90A201249096824
:100EA000086211490968896901EB41010F4A02EBA7
:100EB00081000D490968091DFFF724FE0A490968E8
:100EC000896901EB4101094A02EB81000649096881
:100ED000091DFFF7FFFD3046FFF7B6FEFFF75AFF8B
:100EE00070BD0000F031002020000020FC31002007
:100EF00010B50446A16901EB4101054A02EB8100EE
:100F0000211DFFF7E7FD0348A169FFF749FE10BD6A
:100F1000FC3100202800002010B50446A16901EB37
:100F200041010A4A02EB8100211DFFF7EBFDA16997
:100F300001EB4101054A02EB8100FFF723FE18B9DE
:100F40000348A169FFF7D8FD10BD0000FC31002067
:100F50002800002008B508490968C9084FF47A72CA
:100F6000B1FBF2F14143009100BF00BF00994A1E5E
:100F700000920029F9D108BD1C000020704710B56F
:100F8000FFF762FF10BD00B58FB0282105A8FFF75D
:100F90000AF914216846FFF706F9012005900004BC
:100FA0000690002007900120099002200C90C103B8
:100FB0000D914FF4C0110E9105A8FFF72FFB08B15A
:100FC000FFF73CF90F2000900220019000200290D2
:100FD0004FF4806003900020049002216846FFF7E0
:100FE000EBF908B1FFF72AF90FB000BD114800680E
:100FF00040F001000F490860084640680E4908406B
:101000000C494860084600680C49084009490860D6
:101010000846006820F4802008600846406820F4F4
:10102000FE0048604FF41F008860C8030449086050
:1010300070470000001002400000FFF8FFFFF6FEBE
:1010400008ED00E000BFFEE702E008C8121F08C17B
:10105000002AFAD170477047002001E001C1121F39
:10106000002AFBD17047000008B5FFF7EFF8FFF743
:101070008AFFFFF70FFDFFF769FE124800234FF0CC
:101080001132114900901148FFF7F6FD1048012375
:101090004FF022320F4900900F48FFF7EDFD0F4847
:1010A00001234FF055320E4900900E48FFF7E4FD42
:1010B000FFF7D0FD0C4908600A20FFF791FE00BF42
:1010C000FEE7000030110020ED1000083021002064
:1010D000302100200911000870210020F03100208B
:1010E0001D110008B02100202400002000BF08E0EE
:1010F0000120044908600720FFF762FD0020014934
:101100000860F5E70400002004E0012002490860BF
:1011100000200860F9E700000800002000BF034835
:101120000068401C01490860F9E700000C0000203D
:101130000000000000000000010203040607080987
:1011400000000000010203046811000800000020F4
:1011500030010000E00100088C110008300100207F
:1011600050360000581000080114321042010410DB
:10117000A24A041AFF1A1A02045A0308DA04100ACF
:0C1180001D05200A3D06400A7D07800086
:0400000508000131BD
:00000001FF
