:020000040800F2
:10000000A8240020750100085B0A0008510A0008B6
:10001000570A0008E10100082D0C0008000000004C
:10002000000000000000000000000000650B000858
:10003000E50100080000000045010008670B00080A
:100040008F0100088F0100088F0100088F01000850
:100050008F0100088F0100088F0100088F01000840
:100060008F0100088F0100088F0100088F01000830
:100070008F0100088F0100088F0100088F01000820
:100080008F0100088F0100088F0100088F01000810
:100090008F0100088F0100088F0100088F01000800
:1000A0008F0100088F0100088F0100088F010008F0
:1000B0008F0100088F0100088F0100088F010008E0
:1000C0008F0100088F0100088F0100088F010008D0
:1000D0008F0100088F0100088F0100088F010008C0
:1000E0008F0100088F0100088F0100088F010008B0
:1000F0008F0100088F0100088F0100088F010008A0
:100100008F0100088F0100088F0100088F0100088F
:100110008F0100088F0100088F0100088F0100087F
:100120008F0100088F0100088F0100088F0100086F
:10013000DFF80CD000F042F800480047690C0008D6
:10014000A8240020EFF3098020B120E9F00F07492F
:1001500009680860054806490A6802601068B0E846
:10016000F00F80F309884EF0040E70472000002045
:10017000240000200648804706480047FEE7FEE7C7
:10018000FEE7FEE7FEE7FEE7FEE7FEE7FEE7FEE747
:10019000D50B000831010008D2B201E000F8012BB4
:1001A000491EFBD270470022F6E710B513460A46F7
:1001B00004461946FFF7F0FF204610BD064C074DD8
:1001C00006E0E06840F0010394E807009847103427
:1001D000AC42F6D3FFF7B0FF2C0D00084C0D000821
:1001E00000BFFEE770477047014800687047000095
:1001F00010000020034800680349097808440149B9
:1002000008607047100000201800002010B5084852
:10021000006840F0100006490860032000F098F8DC
:10022000002000F007F800F02BF8002010BD0000BF
:100230000020024070B504460E4800784FF47A71F1
:10024000B1FBF0F00C490968B1FBF0F5284600F06D
:10025000E5FB08B1012070BD102C07D20022214619
:10026000501E00F037F80548046001E00120F2E775
:100270000020F0E7180000201C00002014000020DF
:1002800008B500BF1148806940F001000F4988613E
:100290000846806900F00100009000BF00BF00BF69
:1002A0000846C06940F08050C8610846C06900F047
:1002B0008050009000BF00BF00BF0549486820F093
:1002C000E06040F08060486000BF08BD0010024060
:1002D000000001402DE9F05F80460D4616460027DC
:1002E00000F0BCFB074639462A46334601F00700BA
:1002F000C0F1070ABAF1040F02D94FF0040A01E075
:10030000C0F1070AD14600F1040ABAF1070F02D280
:100310004FF0000A01E0A0F1030AD4464FF0010AB1
:100320000AFA09FAAAF1010A0AEA020A0AFA0CFA16
:100330004FF0010B0BFA0CFBABF1010B0BEA030BBB
:100340004AEA0B042146404600F090FBBDE8F09FCE
:1003500000BF00F00702064B19684FF6FF03194073
:10036000044B0B4343EA0221014B196000BF704765
:100370000CED00E00000FA0570B504460D460026BD
:100380006D48006800F00700A8420ED26A48006875
:1003900020F007002843684908600846006800F01C
:1003A0000700A84201D0012070BD207800F00200B3
:1003B00002281DD1207800F00400042805D15F48F0
:1003C000406840F4E0605D494860207800F0080033
:1003D000082805D15948406840F4605057494860A2
:1003E0005648406820F0F000A1680843534948602F
:1003F000207800F0010000285DD06068012806D157
:100400004E48006800F4003090B90120CCE76068E5
:10041000022806D14948006800F0007040B9012068
:10042000C2E74648006800F0020008B90120BBE7B7
:100430004248406820F00300616808433F49486033
:10044000FFF7D2FE06466068012810D108E0FFF7EA
:10045000CBFE801B41F28831884201D90320A3E7FB
:100460003648406800F00C000428F0D123E06068B2
:10047000022810D108E0FFF7B7FE801B41F2883157
:10048000884201D903208FE72C48406800F00C0017
:100490000828F0D10FE008E0FFF7A6FE801B41F22C
:1004A0008831884201D903207EE72448406800F063
:1004B0000C000028F0D12048006800F00700A84296
:1004C0000ED91D48006820F0070028431A4908602B
:1004D0000846006800F00700A84201D0012063E749
:1004E000207800F00400042807D11448406820F464
:1004F000E060E168084311494860207800F0080096
:10050000082808D10D48406820F46050216940EA6D
:10051000C1000A49486000F017F808494968C1F36A
:100520000311074A515CC840064908600020FFF7E4
:1005300081FE002038E70000002002400010024049
:10054000140D00081C000020F0B585B00FF26C0CF3
:100550009CE8E01001A8A0E8E0101CA52D6800951B
:1005600000210022002300240020194D696801F0B9
:100570000C05F5B1042D02D0082D19D101E0154864
:1005800019E001ADC1F38346AC5D01F4803555B18E
:100590000F4D6D68C5F340451DF805200D4D6543B1
:1005A000B5FBF2F302E00C4D04FB05F3184602E044
:1005B00000BF084800BF00BF05B0F0BD020304053E
:1005C000060708090A0B0C0D0E0F1010010200009F
:1005D0000010024000127A0000093D00F8B5044600
:1005E0000025207800F00100002878D0F848406805
:1005F00000F00C0004280CD0F548406800F00C0016
:10060000082811D1F248406800F48030B0F5803FEE
:100610000AD1EF48006800F4003000285FD060681D
:1006200000285CD10120F8BD00BF6068B0F5803FB4
:1006300006D1E748006840F48030E549086028E0CA
:10064000606858B9E248006820F48030E0490860EA
:100650000846006820F4802008601AE06068B0F561
:10066000A02F0BD1DA48006840F48020D8490860F8
:100670000846006840F4803008600AE0D44800680A
:1006800020F48030D24908600846006820F48020B9
:10069000086000BF606888B1FFF7A6FD054606E068
:1006A000FFF7A2FD401B642801D90320BBE7C8481F
:1006B000006800F400300028F2D010E0FFF794FD4D
:1006C000054606E0FFF790FD401B642801D9032092
:1006D000A9E7BF48006800F400300028F2D1207874
:1006E00000F00200022857D1B948406800F00C0021
:1006F00050B1B748406800F00C00082818D1B44841
:10070000406800F4803098B9B148006800F00200F9
:1007100020B12069012801D0012084E7AC4800689D
:1007200020F0F800616940EAC100A949086033E09F
:100730002069E8B10120A7490860FFF755FD05468B
:1007400006E0FFF751FD401B022801D903206AE7AC
:100750009F48006800F002000028F2D09C48006822
:1007600020F0F800616940EAC1009949086013E08F
:10077000002098490860FFF737FD054606E0FFF7BF
:1007800033FD401B022801D903204CE79048006844
:1007900000F002000028F2D1207800F008000828BC
:1007A0002DD1A069B8B101208B490860FFF71CFD6D
:1007B000054606E0FFF718FD401B022801D903207B
:1007C00031E78348406A00F002000028F2D001209F
:1007D00000F0B4F913E000207F490860FFF704FD42
:1007E000054606E0FFF700FD401B022801D9032063
:1007F00019E77748406A00F002000028F2D120781B
:1008000000F00400042873D100267148C06900F08C
:10081000805070B900BF6E48C06940F080506C498C
:10082000C8610846C06900F08050009000BF00BF5A
:1008300001266A48006800F48070B0B96748006813
:1008400040F4807065490860FFF7CEFC054606E07D
:10085000FFF7CAFC401B642801D90320E3E65F4888
:10086000006800F480700028F2D000BFE068012822
:1008700006D15748006A40F001005549086227E058
:10088000E06858B95248006A20F0010050490862F7
:100890000846006A20F00400086219E0E0680528B4
:1008A0000BD14B48006A40F00400494908620846F1
:1008B000006A40F0010008620AE04548006A20F042
:1008C0000100434908620846006A20F004000862FB
:1008D00000BFE068A0B1FFF787FC054609E0FFF71D
:1008E00083FC401B41F28831884202D903209AE6FA
:1008F00022E03748006A00F002000028EFD012E042
:10090000FFF772FC054608E0FFF76EFC401B41F262
:100910008831884201D9032085E62D48006A00F01D
:1009200002000028F0D1012E05D12948C06920F02D
:1009300080502749C86100BFE069C8B324484068B7
:1009400000F00C00082860D0E069022848D100209F
:1009500020490866FFF748FC054606E0FFF744FC1F
:10096000401B022801D903205DE61948006800F009
:1009700000700028F2D1206AB0F5803F07D11448FA
:10098000406820F40030A168084311494860D4E968
:10099000080108430E49496821F4741108430C49C1
:1009A000486001200B490866FFF71EFC054607E07A
:1009B0002DE0FFF719FC401B022801D9032032E685
:1009C0000348006800F000700028F2D01FE000002B
:1009D0000010024000004242800442420070004089
:1009E00000200C490866FFF7FFFB054606E0FFF70D
:1009F000FBFB401B022801D9032014E606480068CF
:100A000000F000700028F2D101E001200BE6002088
:100A100009E60000000042420010024070B50446A2
:100A20002546681EB0F1807F01D301200FE0681ECB
:100A30004FF0E02148610F214FF0FF3000F016F831
:100A400000204FF0E021886107200861002070BD80
:100A500000BFFEE7704700BFFEE77047024800682E
:100A6000C0F30220704700000CED00E010B5002834
:100A700007DA0A07140E054A00F00F031B1FD454AF
:100A800003E00A07130E024A135410BD18ED00E0EC
:100A900000E400E030B54FF080751C1F2346256050
:100AA0001C1F2346216014251C1F23462560122588
:100AB0001C1F2346256003251C1F23462560022595
:100AC0001C1F2346256001251C1F234625601C1F73
:100AD0002346226011251C1F2346256010251C1F5C
:100AE0002346256009251C1F2346256008251C1F59
:100AF0002346256007251C1F2346256006251C1F4D
:100B00002346256005251C1F2346256004251C1F40
:100B100023462560036030BD00B5002080F30988BE
:100B200000BF00F001F800BDFF204EF62251087012
:100B3000C80601490860704704ED00E008B508499F
:100B40000968C9084FF47A72B1FBF2F14143009190
:100B500000BF00BF00994A1E00920029F9D108BDCC
:100B60001C000020704710B5FFF744FB10BD00B516
:100B70008FB0282105A8FFF716FB14216846FFF760
:100B800012FB012005900004069000200790012030
:100B9000099002200C90C1030D914FF4C0110E91E9
:100BA00005A8FFF71BFD08B1FFF71DFB0F20009004
:100BB00002200190002002904FF4806003900020FA
:100BC000049002216846FFF7D7FB08B1FFF70BFB43
:100BD0000FB000BD1148006840F001000F490860E7
:100BE000084640680E4908400C49486008460068BD
:100BF0000C490840094908600846006820F4802034
:100C000008600846406820F4FE0048604FF41F006A
:100C10008860C80304490860704700000010024063
:100C20000000FFF8FFFFF6FE08ED00E000BFFEE762
:100C300002E008C8121F08C1002AFAD170477047A5
:100C4000002001E001C1121F002AFBD1704705E01E
:100C5000002100E0491CB1F57A7FFBD3011EA0F111
:100C60000100F5D170470000FFF7D0FAFFF77FFFD2
:100C7000FFF7F0FE0D4B4FF011320D490D48FFF715
:100C800009FF0D4B4FF022320C490D48FFF702FFD0
:100C900008480C4908600A484860084600680A4944
:100CA0000860FFF739FF00BFFEE7000028100020B2
:100CB000CD0C00080000002028200020F10C0008C6
:100CC0000400002028200020240000200DE0012046
:100CD000064908604FF47A70FFF7B9FF0020034916
:100CE00008604FF47A70FFF7B2FFF0E708000020C9
:100CF0000DE00120064908604FF47A70FFF7A7FF66
:100D00000020034908604FF47A70FFF7A0FFF0E776
:100D10000C0000200000000000000000010203049D
:100D20000607080900000000010203044C0D00083A
:100D30000000002028000000300C0008740D00089E
:100D40002800002080240000400C00080000000063
:100D50000000000000000000000000000000000093
:100D6000100000000100000000A24A040000000082
:040D7000000000007F
:0400000508000131BD
:00000001FF
